:0400000030EF00F0ED
:10000800E1CF2EF0E2CF2FF01AEE9BF0F0B6F0A081
:1000180003D0F6EC00F01BD0F0B8F0A203D0F4EC5B
:1000280000F015D0F2BCA0A205D0A1A203D0E1EC4B
:1000380000F00DD0F2BC9DA005D09EA003D0E7EC47
:1000480000F005D0F2B6F2A002D0EDEC00F02FC01F
:10005800E2FF2EC0E1FF110015EEFEF071EF00F097
:10006800D0EC00F0DAEC00F0838A150E3A6E4B0EF5
:10007800396EBE0EE82EFED7392EFCD73A2EFAD7A7
:1000880000D0839A150E3A6E4B0E396EBE0EE82ECE
:10009800FED7392EFCD73A2EFAD700D01B0EACEC7F
:1000A80000F01A0EACEC00F032C009F033C00AF0D0
:1000B800828A3B6A3C6A0AD0060E396E300EE82EF8
:1000C800FED7392EFCD700D03B4A3C2A09503B5C6E
:1000D8000A503C58F1E3829AC7D7E40EF66E010E37
:1000E800F76E000EF86E00EE49F020EE04F00900FD
:1000F800F5CFEEFFDD50D950FAE103EEE0F022EE45
:100108001EF0EE6ADD50D950FCE1DA50FAE103EE58
:1001180000F0E00EEE6AE806FDE102EE00F0F50EF2
:10012800EE6AE806FDE101EE00F0A00EEE6AE806D0
:10013800FDE100EE60F0360EEE6AE806FDE100EE45
:1001480001F02D0EEE6AE806FDE1000134EF00F043
:10015800366EC2803650C5EC00F0C282C2B2FED7FD
:10016800C350C4CF34F0356A34C035F0346A341023
:10017800376E3550386EC29037C032F038C033F021
:100188001200316E31C030F030463046C25030185F
:10019800830B3018C26E1200949A959A958C958E9E
:1001A8000F013A9B3B9B3B8D3B8F1200C292C08E46
:1001B800C050F80B0309C06E1200A19210C0B3FF23
:1001C8000FC0B2FF12009E9014C0CFFF13C0CEFF25
:1001D800120062B8FAEC00F0F2901200FFFFFFFF85
:1001E800F0921200F0901200120012001200120099
:0201F8001200F3
:10FFA60000D8B9D11901502E010000000001FF1838
:10FFB600C7D41901502E010000000001FF58D4D704
:10FFC6001901502E010000000001FFA027BE3301D9
:10FFD600502E010000000001FFE034C13301502E15
:10FFE600010000000001FF2042C43301502E010031
:09FFF60000000001FFC194C100EC
:020000040020DA
:08000000FFFFFFFFFFFFFFFF00
:020000040030CA
:0E000000FF281F3CFFBF85FF0FC00FE00F4021
:00000001FF
