:0400000030EF00F0ED
:10000800E1CF2EF0E2CF2FF01AEE9BF0F0B6F0A081
:1000180003D0F3EC00F01BD0F0B8F0A203D0F1EC61
:1000280000F015D0F2BCA0A205D0A1A203D0DEEC4E
:1000380000F00DD0F2BC9DA005D09EA003D0E4EC4A
:1000480000F005D0F2B6F2A002D0EAEC00F02FC022
:10005800E2FF2EC0E1FF110015EEFEF034EF00F0D4
:10006800DE0EF66E010EF76E000EF86E00EE49F029
:1000780020EE04F00900F5CFEEFFDD50D950FAE18B
:1000880003EEE0F022EE1EF0EE6ADD50D950FCE1FE
:10009800DA50FAE103EE00F0E00EEE6AE806FDE160
:1000A80002EE00F0F50EEE6AE806FDE101EE00F062
:1000B800A00EEE6AE806FDE100EE60F0360EEE6A8C
:1000C800E806FDE100EE01F02D0EEE6AE806FDE11E
:1000D80000016FEF00F0CDEC00F0D7EC00F0838A60
:1000E8000B0E3A6E260E396E5E0EE82EFED7392EAE
:1000F800FCD73A2EFAD7839A0B0E3A6E260E396E33
:100108005E0EE82EFED7392EFCD73A2EFAD71B0EF4
:10011800A9EC00F01A0EA9EC00F032C009F033C0C7
:100128000AF0828A3B6A3C6A09D0030E396E980E3F
:10013800E82EFED7392EFCD73B4A3C2A09503B5CB7
:100148000A503C58F2E3829ACAD7366EC2803650BB
:10015800C2EC00F0C282C2B2FED7C350C4CF34F0A2
:10016800356A34C035F0346A3410376E3550386E1D
:10017800C29037C032F038C033F01200316E31C04F
:1001880030F030463046C2503018830B3018C26EFB
:100198001200949A959A958C958E0F013A9B3B9BE9
:1001A8003B8D3B8F1200C292C08EC050F80B0309E2
:1001B800C06E1200A19210C0B3FF0FC0B2FF1200B0
:1001C8009E9014C0CFFF13C0CEFF120062B8F7ECA8
:1001D80000F0F2901200FFFFFFFFF0921200F09083
:0C01E8001200120012001200120012009F
:10FFA60000D8B9D11901502E010000000001FF1838
:10FFB600C7D41901502E010000000001FF58D4D704
:10FFC6001901502E010000000001FFA027BE3301D9
:10FFD600502E010000000001FFE034C13301502E15
:10FFE600010000000001FF2042C43301502E010031
:09FFF60000000001FFC194C100EC
:020000040020DA
:08000000FFFFFFFFFFFFFFFF00
:020000040030CA
:0E000000FF281F3CFFBF85FF0FC00FE00F4021
:00000001FF
